{
  "transactions": [
    {
      "hash": "0xcb4861eb5852c2647f505d5d04aa098e5042261b2511bb1c5a8d81674fd3b113",
      "transactionType": "CALL",
      "contractName": null,
      "contractAddress": "0x779877a7b0d9e8603169ddbd7836e478b4624789",
      "function": "transferAndCall(address,uint256,bytes)",
      "arguments": [
        "0x9DdfaCa8183c41ad55329BdeeD9F6A8d53168B1B",
        "3000000000000000000",
        "0xf1202839e10d604b3cd0ddb13398cb5c9a6d15115bdc5492503d0f121db550cb"
      ],
      "transaction": {
        "from": "0xbc428bb80b1cc3c29164820528819abf6b20cb88",
        "to": "0x779877a7b0d9e8603169ddbd7836e478b4624789",
        "gas": "0x14cbb",
        "value": "0x0",
        "input": "0x4000aea00000000000000000000000009ddfaca8183c41ad55329bdeed9f6a8d53168b1b00000000000000000000000000000000000000000000000029a2241af62c000000000000000000000000000000000000000000000000000000000000000000600000000000000000000000000000000000000000000000000000000000000020f1202839e10d604b3cd0ddb13398cb5c9a6d15115bdc5492503d0f121db550cb",
        "nonce": "0x5e",
        "chainId": "0xaa36a7"
      },
      "additionalContracts": [],
      "isFixedGasLimit": false
    }
  ],
  "receipts": [
    {
      "status": "0x1",
      "cumulativeGasUsed": "0x9d5491",
      "logs": [
        {
          "address": "0x779877a7b0d9e8603169ddbd7836e478b4624789",
          "topics": [
            "0xddf252ad1be2c89b69c2b068fc378daa952ba7f163c4a11628f55a4df523b3ef",
            "0x000000000000000000000000bc428bb80b1cc3c29164820528819abf6b20cb88",
            "0x0000000000000000000000009ddfaca8183c41ad55329bdeed9f6a8d53168b1b"
          ],
          "data": "0x00000000000000000000000000000000000000000000000029a2241af62c0000",
          "blockHash": "0xce6ce72d9684e754415e095959fd66349d80223eabf3adc03c4f7b35c62e889c",
          "blockNumber": "0x5ffff3",
          "transactionHash": "0xcb4861eb5852c2647f505d5d04aa098e5042261b2511bb1c5a8d81674fd3b113",
          "transactionIndex": "0x38",
          "logIndex": "0x45",
          "removed": false
        },
        {
          "address": "0x779877a7b0d9e8603169ddbd7836e478b4624789",
          "topics": [
            "0xe19260aff97b920c7df27010903aeb9c8d2be5d310a2c67824cf3f15396e4c16",
            "0x000000000000000000000000bc428bb80b1cc3c29164820528819abf6b20cb88",
            "0x0000000000000000000000009ddfaca8183c41ad55329bdeed9f6a8d53168b1b"
          ],
          "data": "0x00000000000000000000000000000000000000000000000029a2241af62c000000000000000000000000000000000000000000000000000000000000000000400000000000000000000000000000000000000000000000000000000000000020f1202839e10d604b3cd0ddb13398cb5c9a6d15115bdc5492503d0f121db550cb",
          "blockHash": "0xce6ce72d9684e754415e095959fd66349d80223eabf3adc03c4f7b35c62e889c",
          "blockNumber": "0x5ffff3",
          "transactionHash": "0xcb4861eb5852c2647f505d5d04aa098e5042261b2511bb1c5a8d81674fd3b113",
          "transactionIndex": "0x38",
          "logIndex": "0x46",
          "removed": false
        },
        {
          "address": "0x9ddfaca8183c41ad55329bdeed9f6a8d53168b1b",
          "topics": [
            "0x1ced9348ff549fceab2ac57cd3a9de38edaaab274b725ee82c23e8fc8c4eec7a",
            "0xf1202839e10d604b3cd0ddb13398cb5c9a6d15115bdc5492503d0f121db550cb"
          ],
          "data": "0x0000000000000000000000000000000000000000000000004563918244f400000000000000000000000000000000000000000000000000006f05b59d3b200000",
          "blockHash": "0xce6ce72d9684e754415e095959fd66349d80223eabf3adc03c4f7b35c62e889c",
          "blockNumber": "0x5ffff3",
          "transactionHash": "0xcb4861eb5852c2647f505d5d04aa098e5042261b2511bb1c5a8d81674fd3b113",
          "transactionIndex": "0x38",
          "logIndex": "0x47",
          "removed": false
        }
      ],
      "logsBloom": "0x00000804000000000000200000000000000000000020020000000000020000000000000000000000000000080000000000000000000000000000000000000000000000000000000000000008000000000000000000000000000020000020000008000000000000000000000000000000000000000000000000000010000040000000000000000000000000010000800000000020000000000000000000000000000000000000004000000000010000000000000000000000000004000000000000000002000000000000000000000000000000002000000100000000000000000010000000000000800000000000000000000000000000000000000000000000",
      "type": "0x2",
      "transactionHash": "0xcb4861eb5852c2647f505d5d04aa098e5042261b2511bb1c5a8d81674fd3b113",
      "transactionIndex": "0x38",
      "blockHash": "0xce6ce72d9684e754415e095959fd66349d80223eabf3adc03c4f7b35c62e889c",
      "blockNumber": "0x5ffff3",
      "gasUsed": "0xf0e5",
      "effectiveGasPrice": "0x10514af91",
      "from": "0xbc428bb80b1cc3c29164820528819abf6b20cb88",
      "to": "0x779877a7b0d9e8603169ddbd7836e478b4624789",
      "contractAddress": null
    }
  ],
  "libraries": [],
  "pending": [],
  "returns": {},
  "timestamp": 1720723982,
  "chain": 11155111,
  "commit": "bbd7957"
}